{
  "contractName": "Podmatic",
  "abi": [
    {
      "inputs": [],
      "stateMutability": "nonpayable",
      "type": "constructor"
    },
    {
      "anonymous": false,
      "inputs": [
        {
          "indexed": true,
          "internalType": "address",
          "name": "owner",
          "type": "address"
        },
        {
          "indexed": true,
          "internalType": "address",
          "name": "approved",
          "type": "address"
        },
        {
          "indexed": true,
          "internalType": "uint256",
          "name": "tokenId",
          "type": "uint256"
        }
      ],
      "name": "Approval",
      "type": "event"
    },
    {
      "anonymous": false,
      "inputs": [
        {
          "indexed": true,
          "internalType": "address",
          "name": "owner",
          "type": "address"
        },
        {
          "indexed": true,
          "internalType": "address",
          "name": "operator",
          "type": "address"
        },
        {
          "indexed": false,
          "internalType": "bool",
          "name": "approved",
          "type": "bool"
        }
      ],
      "name": "ApprovalForAll",
      "type": "event"
    },
    {
      "anonymous": false,
      "inputs": [
        {
          "indexed": false,
          "internalType": "uint256",
          "name": "id",
          "type": "uint256"
        },
        {
          "indexed": false,
          "internalType": "uint256",
          "name": "price",
          "type": "uint256"
        },
        {
          "indexed": false,
          "internalType": "string",
          "name": "podcastName",
          "type": "string"
        },
        {
          "indexed": false,
          "internalType": "address payable",
          "name": "podcasterAddress",
          "type": "address"
        },
        {
          "indexed": false,
          "internalType": "address payable",
          "name": "currentOwnerAddress",
          "type": "address"
        }
      ],
      "name": "PodcastPurchased",
      "type": "event"
    },
    {
      "anonymous": false,
      "inputs": [
        {
          "indexed": true,
          "internalType": "address",
          "name": "from",
          "type": "address"
        },
        {
          "indexed": true,
          "internalType": "address",
          "name": "to",
          "type": "address"
        },
        {
          "indexed": true,
          "internalType": "uint256",
          "name": "tokenId",
          "type": "uint256"
        }
      ],
      "name": "Transfer",
      "type": "event"
    },
    {
      "inputs": [
        {
          "internalType": "address",
          "name": "to",
          "type": "address"
        },
        {
          "internalType": "uint256",
          "name": "tokenId",
          "type": "uint256"
        }
      ],
      "name": "approve",
      "outputs": [],
      "stateMutability": "nonpayable",
      "type": "function"
    },
    {
      "inputs": [
        {
          "internalType": "address",
          "name": "owner",
          "type": "address"
        }
      ],
      "name": "balanceOf",
      "outputs": [
        {
          "internalType": "uint256",
          "name": "",
          "type": "uint256"
        }
      ],
      "stateMutability": "view",
      "type": "function",
      "constant": true
    },
    {
      "inputs": [
        {
          "internalType": "uint256",
          "name": "tokenId",
          "type": "uint256"
        }
      ],
      "name": "getApproved",
      "outputs": [
        {
          "internalType": "address",
          "name": "",
          "type": "address"
        }
      ],
      "stateMutability": "view",
      "type": "function",
      "constant": true
    },
    {
      "inputs": [
        {
          "internalType": "address",
          "name": "owner",
          "type": "address"
        },
        {
          "internalType": "address",
          "name": "operator",
          "type": "address"
        }
      ],
      "name": "isApprovedForAll",
      "outputs": [
        {
          "internalType": "bool",
          "name": "",
          "type": "bool"
        }
      ],
      "stateMutability": "view",
      "type": "function",
      "constant": true
    },
    {
      "inputs": [],
      "name": "name",
      "outputs": [
        {
          "internalType": "string",
          "name": "",
          "type": "string"
        }
      ],
      "stateMutability": "view",
      "type": "function",
      "constant": true
    },
    {
      "inputs": [
        {
          "internalType": "uint256",
          "name": "tokenId",
          "type": "uint256"
        }
      ],
      "name": "ownerOf",
      "outputs": [
        {
          "internalType": "address",
          "name": "",
          "type": "address"
        }
      ],
      "stateMutability": "view",
      "type": "function",
      "constant": true
    },
    {
      "inputs": [
        {
          "internalType": "uint256",
          "name": "",
          "type": "uint256"
        }
      ],
      "name": "podcasts",
      "outputs": [
        {
          "internalType": "uint256",
          "name": "id",
          "type": "uint256"
        },
        {
          "internalType": "string",
          "name": "podcastName",
          "type": "string"
        },
        {
          "internalType": "string",
          "name": "podcasterName",
          "type": "string"
        },
        {
          "internalType": "string",
          "name": "podcastGuest",
          "type": "string"
        },
        {
          "internalType": "uint256",
          "name": "price",
          "type": "uint256"
        },
        {
          "internalType": "uint256",
          "name": "createTime",
          "type": "uint256"
        },
        {
          "components": [
            {
              "internalType": "string",
              "name": "imgHash",
              "type": "string"
            },
            {
              "internalType": "string",
              "name": "podcastAudioHash",
              "type": "string"
            },
            {
              "internalType": "string",
              "name": "summaryHash",
              "type": "string"
            },
            {
              "internalType": "string",
              "name": "backgroundHash",
              "type": "string"
            }
          ],
          "internalType": "struct Podmatic.Hashes",
          "name": "hashes",
          "type": "tuple"
        },
        {
          "internalType": "address payable",
          "name": "podcasterAddress",
          "type": "address"
        },
        {
          "internalType": "address payable",
          "name": "currentOwnerAddress",
          "type": "address"
        },
        {
          "internalType": "bool",
          "name": "onSale",
          "type": "bool"
        },
        {
          "components": [
            {
              "internalType": "address[]",
              "name": "previousOwners",
              "type": "address[]"
            },
            {
              "internalType": "uint256[]",
              "name": "previousPrices",
              "type": "uint256[]"
            },
            {
              "internalType": "uint256[]",
              "name": "previousSaleTimes",
              "type": "uint256[]"
            }
          ],
          "internalType": "struct Podmatic.Sales",
          "name": "sales",
          "type": "tuple"
        },
        {
          "components": [
            {
              "internalType": "string",
              "name": "spotify",
              "type": "string"
            },
            {
              "internalType": "string",
              "name": "applePodcasts",
              "type": "string"
            },
            {
              "internalType": "string",
              "name": "audible",
              "type": "string"
            },
            {
              "internalType": "string",
              "name": "googlePodcasts",
              "type": "string"
            }
          ],
          "internalType": "struct Podmatic.Link",
          "name": "links",
          "type": "tuple"
        },
        {
          "components": [
            {
              "internalType": "string",
              "name": "genre",
              "type": "string"
            },
            {
              "internalType": "string[]",
              "name": "tags",
              "type": "string[]"
            },
            {
              "internalType": "string",
              "name": "speech",
              "type": "string"
            },
            {
              "internalType": "string",
              "name": "podcastType",
              "type": "string"
            },
            {
              "internalType": "string",
              "name": "languageOfRecording",
              "type": "string"
            }
          ],
          "internalType": "struct Podmatic.Characteristic",
          "name": "characteristics",
          "type": "tuple"
        }
      ],
      "stateMutability": "view",
      "type": "function",
      "constant": true
    },
    {
      "inputs": [],
      "name": "podcastsCount",
      "outputs": [
        {
          "internalType": "uint256",
          "name": "",
          "type": "uint256"
        }
      ],
      "stateMutability": "view",
      "type": "function",
      "constant": true
    },
    {
      "inputs": [
        {
          "internalType": "address",
          "name": "from",
          "type": "address"
        },
        {
          "internalType": "address",
          "name": "to",
          "type": "address"
        },
        {
          "internalType": "uint256",
          "name": "tokenId",
          "type": "uint256"
        }
      ],
      "name": "safeTransferFrom",
      "outputs": [],
      "stateMutability": "nonpayable",
      "type": "function"
    },
    {
      "inputs": [
        {
          "internalType": "address",
          "name": "from",
          "type": "address"
        },
        {
          "internalType": "address",
          "name": "to",
          "type": "address"
        },
        {
          "internalType": "uint256",
          "name": "tokenId",
          "type": "uint256"
        },
        {
          "internalType": "bytes",
          "name": "data",
          "type": "bytes"
        }
      ],
      "name": "safeTransferFrom",
      "outputs": [],
      "stateMutability": "nonpayable",
      "type": "function"
    },
    {
      "inputs": [
        {
          "internalType": "address",
          "name": "operator",
          "type": "address"
        },
        {
          "internalType": "bool",
          "name": "approved",
          "type": "bool"
        }
      ],
      "name": "setApprovalForAll",
      "outputs": [],
      "stateMutability": "nonpayable",
      "type": "function"
    },
    {
      "inputs": [
        {
          "internalType": "bytes4",
          "name": "interfaceId",
          "type": "bytes4"
        }
      ],
      "name": "supportsInterface",
      "outputs": [
        {
          "internalType": "bool",
          "name": "",
          "type": "bool"
        }
      ],
      "stateMutability": "view",
      "type": "function",
      "constant": true
    },
    {
      "inputs": [],
      "name": "symbol",
      "outputs": [
        {
          "internalType": "string",
          "name": "",
          "type": "string"
        }
      ],
      "stateMutability": "view",
      "type": "function",
      "constant": true
    },
    {
      "inputs": [
        {
          "internalType": "uint256",
          "name": "tokenId",
          "type": "uint256"
        }
      ],
      "name": "tokenURI",
      "outputs": [
        {
          "internalType": "string",
          "name": "",
          "type": "string"
        }
      ],
      "stateMutability": "view",
      "type": "function",
      "constant": true
    },
    {
      "inputs": [
        {
          "internalType": "address",
          "name": "from",
          "type": "address"
        },
        {
          "internalType": "address",
          "name": "to",
          "type": "address"
        },
        {
          "internalType": "uint256",
          "name": "tokenId",
          "type": "uint256"
        }
      ],
      "name": "transferFrom",
      "outputs": [],
      "stateMutability": "nonpayable",
      "type": "function"
    },
    {
      "inputs": [
        {
          "internalType": "string",
          "name": "_podcastName",
          "type": "string"
        },
        {
          "internalType": "string",
          "name": "_podcasterName",
          "type": "string"
        },
        {
          "internalType": "string",
          "name": "_podcastGuest",
          "type": "string"
        },
        {
          "internalType": "uint256",
          "name": "_price",
          "type": "uint256"
        },
        {
          "internalType": "string",
          "name": "_imgHash",
          "type": "string"
        },
        {
          "internalType": "string",
          "name": "_podcastAudioHash",
          "type": "string"
        },
        {
          "internalType": "string",
          "name": "_backgroundHash",
          "type": "string"
        },
        {
          "internalType": "string",
          "name": "_summaryHash",
          "type": "string"
        },
        {
          "internalType": "bool",
          "name": "_onSale",
          "type": "bool"
        },
        {
          "components": [
            {
              "internalType": "string",
              "name": "spotify",
              "type": "string"
            },
            {
              "internalType": "string",
              "name": "applePodcasts",
              "type": "string"
            },
            {
              "internalType": "string",
              "name": "audible",
              "type": "string"
            },
            {
              "internalType": "string",
              "name": "googlePodcasts",
              "type": "string"
            }
          ],
          "internalType": "struct Podmatic.Link",
          "name": "_links",
          "type": "tuple"
        },
        {
          "components": [
            {
              "internalType": "string",
              "name": "genre",
              "type": "string"
            },
            {
              "internalType": "string[]",
              "name": "tags",
              "type": "string[]"
            },
            {
              "internalType": "string",
              "name": "speech",
              "type": "string"
            },
            {
              "internalType": "string",
              "name": "podcastType",
              "type": "string"
            },
            {
              "internalType": "string",
              "name": "languageOfRecording",
              "type": "string"
            }
          ],
          "internalType": "struct Podmatic.Characteristic",
          "name": "_characteristics",
          "type": "tuple"
        }
      ],
      "name": "createPodcast",
      "outputs": [],
      "stateMutability": "nonpayable",
      "type": "function"
    },
    {
      "inputs": [
        {
          "internalType": "uint256",
          "name": "_id",
          "type": "uint256"
        }
      ],
      "name": "purchasePodcast",
      "outputs": [],
      "stateMutability": "payable",
      "type": "function",
      "payable": true
    },
    {
      "inputs": [
        {
          "internalType": "uint256",
          "name": "_id",
          "type": "uint256"
        }
      ],
      "name": "toggleOnSale",
      "outputs": [],
      "stateMutability": "nonpayable",
      "type": "function"
    },
    {
      "inputs": [
        {
          "internalType": "uint256",
          "name": "_id",
          "type": "uint256"
        },
        {
          "internalType": "uint256",
          "name": "_newPrice",
          "type": "uint256"
        }
      ],
      "name": "updatePrice",
      "outputs": [],
      "stateMutability": "nonpayable",
      "type": "function"
    },
    {
      "inputs": [],
      "name": "fetchAllNFTs",
      "outputs": [
        {
          "components": [
            {
              "internalType": "uint256",
              "name": "id",
              "type": "uint256"
            },
            {
              "internalType": "string",
              "name": "podcastName",
              "type": "string"
            },
            {
              "internalType": "string",
              "name": "podcasterName",
              "type": "string"
            },
            {
              "internalType": "string",
              "name": "podcastGuest",
              "type": "string"
            },
            {
              "internalType": "uint256",
              "name": "price",
              "type": "uint256"
            },
            {
              "internalType": "uint256",
              "name": "createTime",
              "type": "uint256"
            },
            {
              "components": [
                {
                  "internalType": "string",
                  "name": "imgHash",
                  "type": "string"
                },
                {
                  "internalType": "string",
                  "name": "podcastAudioHash",
                  "type": "string"
                },
                {
                  "internalType": "string",
                  "name": "summaryHash",
                  "type": "string"
                },
                {
                  "internalType": "string",
                  "name": "backgroundHash",
                  "type": "string"
                }
              ],
              "internalType": "struct Podmatic.Hashes",
              "name": "hashes",
              "type": "tuple"
            },
            {
              "internalType": "address payable",
              "name": "podcasterAddress",
              "type": "address"
            },
            {
              "internalType": "address payable",
              "name": "currentOwnerAddress",
              "type": "address"
            },
            {
              "internalType": "bool",
              "name": "onSale",
              "type": "bool"
            },
            {
              "components": [
                {
                  "internalType": "address[]",
                  "name": "previousOwners",
                  "type": "address[]"
                },
                {
                  "internalType": "uint256[]",
                  "name": "previousPrices",
                  "type": "uint256[]"
                },
                {
                  "internalType": "uint256[]",
                  "name": "previousSaleTimes",
                  "type": "uint256[]"
                }
              ],
              "internalType": "struct Podmatic.Sales",
              "name": "sales",
              "type": "tuple"
            },
            {
              "components": [
                {
                  "internalType": "string",
                  "name": "spotify",
                  "type": "string"
                },
                {
                  "internalType": "string",
                  "name": "applePodcasts",
                  "type": "string"
                },
                {
                  "internalType": "string",
                  "name": "audible",
                  "type": "string"
                },
                {
                  "internalType": "string",
                  "name": "googlePodcasts",
                  "type": "string"
                }
              ],
              "internalType": "struct Podmatic.Link",
              "name": "links",
              "type": "tuple"
            },
            {
              "components": [
                {
                  "internalType": "string",
                  "name": "genre",
                  "type": "string"
                },
                {
                  "internalType": "string[]",
                  "name": "tags",
                  "type": "string[]"
                },
                {
                  "internalType": "string",
                  "name": "speech",
                  "type": "string"
                },
                {
                  "internalType": "string",
                  "name": "podcastType",
                  "type": "string"
                },
                {
                  "internalType": "string",
                  "name": "languageOfRecording",
                  "type": "string"
                }
              ],
              "internalType": "struct Podmatic.Characteristic",
              "name": "characteristics",
              "type": "tuple"
            }
          ],
          "internalType": "struct Podmatic.Podcast[]",
          "name": "",
          "type": "tuple[]"
        }
      ],
      "stateMutability": "view",
      "type": "function",
      "constant": true
    }
  ],
  "bytecode": "0x60806040526000600755600880546001600160a01b03191673159507b2b3829791fab794581d2ac074f35960131790553480156200003c57600080fd5b5060405180604001604052806008815260200167506f646d6174696360c01b8152506040518060400160405280600381526020016250444d60e81b81525081600090816200008b91906200014d565b5060016200009a82826200014d565b505060016006555062000219565b634e487b7160e01b600052604160045260246000fd5b600181811c90821680620000d357607f821691505b602082108103620000f457634e487b7160e01b600052602260045260246000fd5b50919050565b601f8211156200014857600081815260208120601f850160051c81016020861015620001235750805b601f850160051c820191505b8181101562000144578281556001016200012f565b5050505b505050565b81516001600160401b03811115620001695762000169620000a8565b62000181816200017a8454620000be565b84620000fa565b602080601f831160018114620001b95760008415620001a05750858301515b600019600386901b1c1916600185901b17855562000144565b600085815260208120601f198616915b82811015620001ea57888601518255948401946001909101908401620001c9565b5085821015620002095787850151600019600388901b60f8161c191681555b5050505050600190811b01905550565b614b6280620002296000396000f3fe6080604052600436106100ef5760003560e01c806301ffc9a7146100f457806306fdde0314610129578063081812fc1461014b578063095ea7b3146101835780630cb3d85f146101a557806323b872dd146101c95780632788072d146101e95780633f0e317b1461022257806342842e0e146102445780636352211e1461026457806370a082311461028457806382367b2d146102a457806395d89b41146102c45780639700dc11146102d95780639f60f783146102f9578063a22cb4651461030c578063b88d4fde1461032c578063c87b56dd1461034c578063e985e9c51461036c578063ee169bd31461038c575b600080fd5b34801561010057600080fd5b5061011461010f366004613a84565b6103ac565b60405190151581526020015b60405180910390f35b34801561013557600080fd5b5061013e6103fe565b6040516101209190613af1565b34801561015757600080fd5b5061016b610166366004613b04565b610490565b6040516001600160a01b039091168152602001610120565b34801561018f57600080fd5b506101a361019e366004613b46565b6104b7565b005b3480156101b157600080fd5b506101bb60075481565b604051908152602001610120565b3480156101d557600080fd5b506101a36101e4366004613b70565b6105d1565b3480156101f557600080fd5b50610209610204366004613b04565b610602565b6040516101209d9c9b9a99989796959493929190613d8a565b34801561022e57600080fd5b506102376110f0565b6040516101209190613e63565b34801561025057600080fd5b506101a361025f366004613b70565b611d20565b34801561027057600080fd5b5061016b61027f366004613b04565b611d3b565b34801561029057600080fd5b506101bb61029f366004613fcb565b611d70565b3480156102b057600080fd5b506101a36102bf366004613fe6565b611df6565b3480156102d057600080fd5b5061013e6120b7565b3480156102e557600080fd5b506101a36102f4366004614352565b6120c6565b6101a3610307366004613b04565b6125f0565b34801561031857600080fd5b506101a36103273660046144dc565b612bda565b34801561033857600080fd5b506101a361034736600461450f565b612be9565b34801561035857600080fd5b5061013e610367366004613b04565b612c21565b34801561037857600080fd5b5061011461038736600461458a565b612c95565b34801561039857600080fd5b506101a36103a7366004613b04565b612cc3565b60006001600160e01b031982166380ac58cd60e01b14806103dd57506001600160e01b03198216635b5e139f60e01b145b806103f857506301ffc9a760e01b6001600160e01b03198316145b92915050565b60606000805461040d906145b4565b80601f0160208091040260200160405190810160405280929190818152602001828054610439906145b4565b80156104865780601f1061045b57610100808354040283529160200191610486565b820191906000526020600020905b81548152906001019060200180831161046957829003601f168201915b5050505050905090565b600061049b82613059565b506000908152600460205260409020546001600160a01b031690565b60006104c282611d3b565b9050806001600160a01b0316836001600160a01b0316036105345760405162461bcd60e51b815260206004820152602160248201527f4552433732313a20617070726f76616c20746f2063757272656e74206f776e656044820152603960f91b60648201526084015b60405180910390fd5b336001600160a01b038216148061055057506105508133612c95565b6105c25760405162461bcd60e51b815260206004820152603e60248201527f4552433732313a20617070726f76652063616c6c6572206973206e6f7420746f60448201527f6b656e206f776e6572206e6f7220617070726f76656420666f7220616c6c0000606482015260840161052b565b6105cc8383613081565b505050565b6105db33826130ef565b6105f75760405162461bcd60e51b815260040161052b906145e8565b6105cc83838361314e565b60096020526000908152604090208054600182018054919291610624906145b4565b80601f0160208091040260200160405190810160405280929190818152602001828054610650906145b4565b801561069d5780601f106106725761010080835404028352916020019161069d565b820191906000526020600020905b81548152906001019060200180831161068057829003601f168201915b5050505050908060020180546106b2906145b4565b80601f01602080910402602001604051908101604052809291908181526020018280546106de906145b4565b801561072b5780601f106107005761010080835404028352916020019161072b565b820191906000526020600020905b81548152906001019060200180831161070e57829003601f168201915b505050505090806003018054610740906145b4565b80601f016020809104026020016040519081016040528092919081815260200182805461076c906145b4565b80156107b95780601f1061078e576101008083540402835291602001916107b9565b820191906000526020600020905b81548152906001019060200180831161079c57829003601f168201915b505050505090806004015490806005015490806006016040518060800160405290816000820180546107ea906145b4565b80601f0160208091040260200160405190810160405280929190818152602001828054610816906145b4565b80156108635780601f1061083857610100808354040283529160200191610863565b820191906000526020600020905b81548152906001019060200180831161084657829003601f168201915b5050505050815260200160018201805461087c906145b4565b80601f01602080910402602001604051908101604052809291908181526020018280546108a8906145b4565b80156108f55780601f106108ca576101008083540402835291602001916108f5565b820191906000526020600020905b8154815290600101906020018083116108d857829003601f168201915b5050505050815260200160028201805461090e906145b4565b80601f016020809104026020016040519081016040528092919081815260200182805461093a906145b4565b80156109875780601f1061095c57610100808354040283529160200191610987565b820191906000526020600020905b81548152906001019060200180831161096a57829003601f168201915b505050505081526020016003820180546109a0906145b4565b80601f01602080910402602001604051908101604052809291908181526020018280546109cc906145b4565b8015610a195780601f106109ee57610100808354040283529160200191610a19565b820191906000526020600020905b8154815290600101906020018083116109fc57829003601f168201915b50505091909252505050600a820154600b83015460408051600c8601805460208102830160809081019094526060830181815296976001600160a01b039687169796861696600160a01b90960460ff1695909484928491840182828015610aa957602002820191906000526020600020905b81546001600160a01b03168152600190910190602001808311610a8b575b5050505050815260200160018201805480602002602001604051908101604052809291908181526020018280548015610b0157602002820191906000526020600020905b815481526020019060010190808311610aed575b5050505050815260200160028201805480602002602001604051908101604052809291908181526020018280548015610b5957602002820191906000526020600020905b815481526020019060010190808311610b45575b5050505050815250509080600f01604051806080016040529081600082018054610b82906145b4565b80601f0160208091040260200160405190810160405280929190818152602001828054610bae906145b4565b8015610bfb5780601f10610bd057610100808354040283529160200191610bfb565b820191906000526020600020905b815481529060010190602001808311610bde57829003601f168201915b50505050508152602001600182018054610c14906145b4565b80601f0160208091040260200160405190810160405280929190818152602001828054610c40906145b4565b8015610c8d5780601f10610c6257610100808354040283529160200191610c8d565b820191906000526020600020905b815481529060010190602001808311610c7057829003601f168201915b50505050508152602001600282018054610ca6906145b4565b80601f0160208091040260200160405190810160405280929190818152602001828054610cd2906145b4565b8015610d1f5780601f10610cf457610100808354040283529160200191610d1f565b820191906000526020600020905b815481529060010190602001808311610d0257829003601f168201915b50505050508152602001600382018054610d38906145b4565b80601f0160208091040260200160405190810160405280929190818152602001828054610d64906145b4565b8015610db15780601f10610d8657610100808354040283529160200191610db1565b820191906000526020600020905b815481529060010190602001808311610d9457829003601f168201915b50505050508152505090806013016040518060a0016040529081600082018054610dda906145b4565b80601f0160208091040260200160405190810160405280929190818152602001828054610e06906145b4565b8015610e535780601f10610e2857610100808354040283529160200191610e53565b820191906000526020600020905b815481529060010190602001808311610e3657829003601f168201915b5050505050815260200160018201805480602002602001604051908101604052809291908181526020016000905b82821015610f2d578382906000526020600020018054610ea0906145b4565b80601f0160208091040260200160405190810160405280929190818152602001828054610ecc906145b4565b8015610f195780601f10610eee57610100808354040283529160200191610f19565b820191906000526020600020905b815481529060010190602001808311610efc57829003601f168201915b505050505081526020019060010190610e81565b505050508152602001600282018054610f45906145b4565b80601f0160208091040260200160405190810160405280929190818152602001828054610f71906145b4565b8015610fbe5780601f10610f9357610100808354040283529160200191610fbe565b820191906000526020600020905b815481529060010190602001808311610fa157829003601f168201915b50505050508152602001600382018054610fd7906145b4565b80601f0160208091040260200160405190810160405280929190818152602001828054611003906145b4565b80156110505780601f1061102557610100808354040283529160200191611050565b820191906000526020600020905b81548152906001019060200180831161103357829003601f168201915b50505050508152602001600482018054611069906145b4565b80601f0160208091040260200160405190810160405280929190818152602001828054611095906145b4565b80156110e25780601f106110b7576101008083540402835291602001916110e2565b820191906000526020600020905b8154815290600101906020018083116110c557829003601f168201915b50505050508152505090508d565b606060006007541161113b5760405162461bcd60e51b815260206004820152601460248201527309cde40e0dec8c6c2e6e8e640e8de40cccae8c6d60631b604482015260640161052b565b60006007546001600160401b0381111561115757611157614008565b60405190808252806020026020018201604052801561119057816020015b61117d613778565b8152602001906001900390816111755790505b50905060015b6007548111611d1a57600060096000838152602001908152602001600020905080604051806101a0016040529081600082015481526020016001820180546111dd906145b4565b80601f0160208091040260200160405190810160405280929190818152602001828054611209906145b4565b80156112565780601f1061122b57610100808354040283529160200191611256565b820191906000526020600020905b81548152906001019060200180831161123957829003601f168201915b5050505050815260200160028201805461126f906145b4565b80601f016020809104026020016040519081016040528092919081815260200182805461129b906145b4565b80156112e85780601f106112bd576101008083540402835291602001916112e8565b820191906000526020600020905b8154815290600101906020018083116112cb57829003601f168201915b50505050508152602001600382018054611301906145b4565b80601f016020809104026020016040519081016040528092919081815260200182805461132d906145b4565b801561137a5780601f1061134f5761010080835404028352916020019161137a565b820191906000526020600020905b81548152906001019060200180831161135d57829003601f168201915b505050505081526020016004820154815260200160058201548152602001600682016040518060800160405290816000820180546113b7906145b4565b80601f01602080910402602001604051908101604052809291908181526020018280546113e3906145b4565b80156114305780601f1061140557610100808354040283529160200191611430565b820191906000526020600020905b81548152906001019060200180831161141357829003601f168201915b50505050508152602001600182018054611449906145b4565b80601f0160208091040260200160405190810160405280929190818152602001828054611475906145b4565b80156114c25780601f10611497576101008083540402835291602001916114c2565b820191906000526020600020905b8154815290600101906020018083116114a557829003601f168201915b505050505081526020016002820180546114db906145b4565b80601f0160208091040260200160405190810160405280929190818152602001828054611507906145b4565b80156115545780601f1061152957610100808354040283529160200191611554565b820191906000526020600020905b81548152906001019060200180831161153757829003601f168201915b5050505050815260200160038201805461156d906145b4565b80601f0160208091040260200160405190810160405280929190818152602001828054611599906145b4565b80156115e65780601f106115bb576101008083540402835291602001916115e6565b820191906000526020600020905b8154815290600101906020018083116115c957829003601f168201915b505050919092525050508152600a8201546001600160a01b03908116602080840191909152600b840154918216604080850191909152600160a01b90920460ff1615156060808501919091528251600c8601805460809481028301850190955291810184815294830194909391928492849184018282801561169157602002820191906000526020600020905b81546001600160a01b03168152600190910190602001808311611673575b50505050508152602001600182018054806020026020016040519081016040528092919081815260200182805480156116e957602002820191906000526020600020905b8154815260200190600101908083116116d5575b505050505081526020016002820180548060200260200160405190810160405280929190818152602001828054801561174157602002820191906000526020600020905b81548152602001906001019080831161172d575b5050505050815250508152602001600f820160405180608001604052908160008201805461176e906145b4565b80601f016020809104026020016040519081016040528092919081815260200182805461179a906145b4565b80156117e75780601f106117bc576101008083540402835291602001916117e7565b820191906000526020600020905b8154815290600101906020018083116117ca57829003601f168201915b50505050508152602001600182018054611800906145b4565b80601f016020809104026020016040519081016040528092919081815260200182805461182c906145b4565b80156118795780601f1061184e57610100808354040283529160200191611879565b820191906000526020600020905b81548152906001019060200180831161185c57829003601f168201915b50505050508152602001600282018054611892906145b4565b80601f01602080910402602001604051908101604052809291908181526020018280546118be906145b4565b801561190b5780601f106118e05761010080835404028352916020019161190b565b820191906000526020600020905b8154815290600101906020018083116118ee57829003601f168201915b50505050508152602001600382018054611924906145b4565b80601f0160208091040260200160405190810160405280929190818152602001828054611950906145b4565b801561199d5780601f106119725761010080835404028352916020019161199d565b820191906000526020600020905b81548152906001019060200180831161198057829003601f168201915b5050505050815250508152602001601382016040518060a00160405290816000820180546119ca906145b4565b80601f01602080910402602001604051908101604052809291908181526020018280546119f6906145b4565b8015611a435780601f10611a1857610100808354040283529160200191611a43565b820191906000526020600020905b815481529060010190602001808311611a2657829003601f168201915b5050505050815260200160018201805480602002602001604051908101604052809291908181526020016000905b82821015611b1d578382906000526020600020018054611a90906145b4565b80601f0160208091040260200160405190810160405280929190818152602001828054611abc906145b4565b8015611b095780601f10611ade57610100808354040283529160200191611b09565b820191906000526020600020905b815481529060010190602001808311611aec57829003601f168201915b505050505081526020019060010190611a71565b505050508152602001600282018054611b35906145b4565b80601f0160208091040260200160405190810160405280929190818152602001828054611b61906145b4565b8015611bae5780601f10611b8357610100808354040283529160200191611bae565b820191906000526020600020905b815481529060010190602001808311611b9157829003601f168201915b50505050508152602001600382018054611bc7906145b4565b80601f0160208091040260200160405190810160405280929190818152602001828054611bf3906145b4565b8015611c405780601f10611c1557610100808354040283529160200191611c40565b820191906000526020600020905b815481529060010190602001808311611c2357829003601f168201915b50505050508152602001600482018054611c59906145b4565b80601f0160208091040260200160405190810160405280929190818152602001828054611c85906145b4565b8015611cd25780601f10611ca757610100808354040283529160200191611cd2565b820191906000526020600020905b815481529060010190602001808311611cb557829003601f168201915b5050509190925250505090525083611ceb60018561464c565b81518110611cfb57611cfb61465f565b6020026020010181905250508080611d1290614675565b915050611196565b50919050565b6105cc83838360405180602001604052806000815250612be9565b6000818152600260205260408120546001600160a01b0316806103f85760405162461bcd60e51b815260040161052b9061468e565b60006001600160a01b038216611dda5760405162461bcd60e51b815260206004820152602960248201527f4552433732313a2061646472657373207a65726f206973206e6f7420612076616044820152683634b21037bbb732b960b91b606482015260840161052b565b506001600160a01b031660009081526003602052604090205490565b600082118015611e0857506007548211155b611e245760405162461bcd60e51b815260040161052b906146c0565b6000828152600960205260409020600b8101546001600160a01b03163314611ea25760405162461bcd60e51b815260206004820152602b60248201527f4f6e6c79207468652063757272656e74206f776e65722063616e20757064617460448201526a652074686520707269636560a81b606482015260840161052b565b600481018290556000838152600960205260409020815481558190600180820190611ecf9084018261474f565b50600281810190611ee29084018261474f565b50600381810190611ef59084018261474f565b506004828101549082015560058083015490820155600680830190820180611f1d838261474f565b50600181810190611f309084018261474f565b50600281810190611f439084018261474f565b50600381810190611f569084018261474f565b505050600a8281015490820180546001600160a01b03199081166001600160a01b0393841617909155600b808501805491850180549384169290941691821784555460ff600160a01b91829004161515026001600160a81b031990921617179055600c80830180549091830190611fd09082908490613867565b5060018281018054611fe59284019190613867565b5060028281018054611ffa9284019190613867565b505050600f82810190820180612010838261474f565b506001818101906120239084018261474f565b506002818101906120369084018261474f565b506003818101906120499084018261474f565b50505060138281019082018061205f838261474f565b506001828101805461207492840191906138b7565b506002818101906120879084018261474f565b5060038181019061209a9084018261474f565b506004818101906120ad9084018261474f565b5050505050505050565b60606001805461040d906145b4565b6002600654036120e85760405162461bcd60e51b815260040161052b90614829565b60026006558a5161213a5760405162461bcd60e51b815260206004820152601c60248201527b506f6463617374206e616d652063616e6e6f7420626520656d70747960201b604482015260640161052b565b60008a511161218b5760405162461bcd60e51b815260206004820152601e60248201527f506f64636173746572206e616d652063616e6e6f7420626520656d7074790000604482015260640161052b565b60008951116121e85760405162461bcd60e51b8152602060048201526024808201527f506f64636173742047756573742773206e616d652063616e6e6f7420626520656044820152636d70747960e01b606482015260840161052b565b600088116122375760405162461bcd60e51b815260206004820152601c60248201527b5072696365206d757374206265206174206c6561737420312077656960201b604482015260640161052b565b60008751116122875760405162461bcd60e51b815260206004820152601c60248201527b10dbdd995c881a5b5859d9481b5d5cdd081899481c1c9bdd9a59195960221b604482015260640161052b565b60008651116122d35760405162461bcd60e51b8152602060048201526018602482015277141bd918d85cdd081b5d5cdd081899481c1c9bdd9a59195960421b604482015260640161052b565b6001600760008282546122e69190614860565b909155504290506122f561390b565b604051806101a0016040528060075481526020018e81526020018d81526020018c81526020018b815260200183815260200160405180608001604052808c81526020018b81526020018a8152602001898152508152602001336001600160a01b03168152602001336001600160a01b031681526020018615158152602001828152602001858152602001848152506009600060075481526020019081526020016000206000820151816000015560208201518160010190816123b79190614873565b50604082015160028201906123cc9082614873565b50606082015160038201906123e19082614873565b506080820151600482015560a0820151600582015560c082015180516006830190819061240e9082614873565b50602082015160018201906124239082614873565b50604082015160028201906124389082614873565b506060820151600382019061244d9082614873565b50505060e0820151600a820180546001600160a01b0319166001600160a01b03928316179055610100830151600b83018054610120860151929093166001600160a81b031990931692909217600160a01b9115159190910217905561014082015180518051600c8401916124c69183916020019061392c565b5060208281015180516124df9260018501920190613981565b50604082015180516124fb916002840191602090910190613981565b5050506101608201518051600f83019081906125179082614873565b506020820151600182019061252c9082614873565b50604082015160028201906125419082614873565b50606082015160038201906125569082614873565b5050506101808201518051601383019081906125729082614873565b50602082810151805161258b92600185019201906139bc565b50604082015160028201906125a09082614873565b50606082015160038201906125b59082614873565b50608082015160048201906125ca9082614873565b5050509050506125dc336007546132d8565b505060016006555050505050505050505050565b6002600654036126125760405162461bcd60e51b815260040161052b90614829565b6002600655801580159061262857506007548111155b6126445760405162461bcd60e51b815260040161052b906146c0565b600081815260096020526040902060048101543410156126a25760405162461bcd60e51b8152602060048201526019602482015278139bdd08195b9bdd59da081b585d1a58c81c1c9bdd9a591959603a1b604482015260640161052b565b600b810154600160a01b900460ff166127075760405162461bcd60e51b815260206004820152602160248201527f506f6463617374206973206e6f7420617661696c61626c6520666f722073616c6044820152606560f81b606482015260840161052b565b600b810154336001600160a01b03909116036127715760405162461bcd60e51b8152602060048201526024808201527f596f752063616e6e6f7420707572636861736520796f7572206f776e20706f6460448201526318d85cdd60e21b606482015260840161052b565b600b81018054600c83018054600181810183556000928352602080842090920180546001600160a01b0319166001600160a01b039586161790556004860154600d8701805480840182559085528385200155600e8601805491820181558352912042910155600a830154915491811691160361282857600b8101546040516001600160a01b03909116903480156108fc02916000818181858888f19350505050158015612822573d6000803e3d6000fd5b50612920565b6000612840606461283a34605e6132f2565b906132fe565b600b8301546040519192506001600160a01b03169082156108fc029083906000818181858888f1935050505015801561287d573d6000803e3d6000fd5b506000612890606461283a3460056132f2565b600a8401546040519192506001600160a01b03169082156108fc029083906000818181858888f193505050501580156128cd573d6000803e3d6000fd5b5060006128e0606461283a3460016132f2565b6008546040519192506001600160a01b03169082156108fc029083906000818181858888f1935050505015801561291b573d6000803e3d6000fd5b505050505b600b810154612939906001600160a01b0316338461314e565b600b810180546001600160a01b0319163317905560048101546129649060649061283a9060786132f2565b6004820155600082815260096020526040902081548155819060018082019061298f9084018261474f565b506002818101906129a29084018261474f565b506003818101906129b59084018261474f565b5060048281015490820155600580830154908201556006808301908201806129dd838261474f565b506001818101906129f09084018261474f565b50600281810190612a039084018261474f565b50600381810190612a169084018261474f565b505050600a8281015490820180546001600160a01b03199081166001600160a01b0393841617909155600b808501805491850180549384169290941691821784555460ff600160a01b91829004161515026001600160a81b031990921617179055600c80830180549091830190612a909082908490613867565b5060018281018054612aa59284019190613867565b5060028281018054612aba9284019190613867565b505050600f82810190820180612ad0838261474f565b50600181810190612ae39084018261474f565b50600281810190612af69084018261474f565b50600381810190612b099084018261474f565b505050601382810190820180612b1f838261474f565b5060018281018054612b3492840191906138b7565b50600281810190612b479084018261474f565b50600381810190612b5a9084018261474f565b50600481810190612b6d9084018261474f565b50506007546004850154600a860154600b8701546040517fd50ebf16ecb2f6ccbcdf291a37f04b6a76dad0ae6d077259eb88b461705cdd849750612bc99650939450919260018801926001600160a01b03928316921690614926565b60405180910390a150506001600655565b612be533838361330a565b5050565b612bf333836130ef565b612c0f5760405162461bcd60e51b815260040161052b906145e8565b612c1b848484846133d4565b50505050565b6060612c2c82613059565b6000612c4360408051602081019091526000815290565b90506000815111612c635760405180602001604052806000815250612c8e565b80612c6d84613407565b604051602001612c7e9291906149de565b6040516020818303038152906040525b9392505050565b6001600160a01b03918216600090815260056020908152604080832093909416825291909152205460ff1690565b600081118015612cd557506007548111155b612cf15760405162461bcd60e51b815260040161052b906146c0565b6000818152600960205260409020600a8101546001600160a01b03163314612d775760405162461bcd60e51b815260206004820152603360248201527f4f6e6c792074686520706f646361737465722063616e20746f67676c6520746860448201527265206f6e2073616c652061747472696275746560681b606482015260840161052b565b600b810154600a8201546001600160a01b03908116911614612df25760405162461bcd60e51b815260206004820152602e60248201527f506f64636173746572206d757374206265207468652063757272656e74206f7760448201526d1b995c881bd9881d1a194813919560921b606482015260840161052b565b600b810154600160a01b900460ff161515600103612e1e57600b8101805460ff60a01b19169055612e4c565b600b810154600160a01b900460ff161515600003612e4c57600b8101805460ff60a01b1916600160a01b1790555b6000828152600960205260409020815481558190600180820190612e729084018261474f565b50600281810190612e859084018261474f565b50600381810190612e989084018261474f565b506004828101549082015560058083015490820155600680830190820180612ec0838261474f565b50600181810190612ed39084018261474f565b50600281810190612ee69084018261474f565b50600381810190612ef99084018261474f565b505050600a8281015490820180546001600160a01b03199081166001600160a01b0393841617909155600b808501805491850180549384169290941691821784555460ff600160a01b91829004161515026001600160a81b031990921617179055600c80830180549091830190612f739082908490613867565b5060018281018054612f889284019190613867565b5060028281018054612f9d9284019190613867565b505050600f82810190820180612fb3838261474f565b50600181810190612fc69084018261474f565b50600281810190612fd99084018261474f565b50600381810190612fec9084018261474f565b505050601382810190820180613002838261474f565b506001828101805461301792840191906138b7565b5060028181019061302a9084018261474f565b5060038181019061303d9084018261474f565b506004818101906130509084018261474f565b50505050505050565b61306281613507565b61307e5760405162461bcd60e51b815260040161052b9061468e565b50565b600081815260046020526040902080546001600160a01b0319166001600160a01b03841690811790915581906130b682611d3b565b6001600160a01b03167f8c5be1e5ebec7d5bd14f71427d1e84f3dd0314c0f7b2291e5b200ac8c7c3b92560405160405180910390a45050565b6000806130fb83611d3b565b9050806001600160a01b0316846001600160a01b0316148061312257506131228185612c95565b806131465750836001600160a01b031661313b84610490565b6001600160a01b0316145b949350505050565b826001600160a01b031661316182611d3b565b6001600160a01b0316146131c55760405162461bcd60e51b815260206004820152602560248201527f4552433732313a207472616e736665722066726f6d20696e636f72726563742060448201526437bbb732b960d91b606482015260840161052b565b6001600160a01b0382166132275760405162461bcd60e51b8152602060048201526024808201527f4552433732313a207472616e7366657220746f20746865207a65726f206164646044820152637265737360e01b606482015260840161052b565b613232600082613081565b6001600160a01b038316600090815260036020526040812080546001929061325b90849061464c565b90915550506001600160a01b0382166000908152600360205260408120805460019290613289908490614860565b909155505060008181526002602052604080822080546001600160a01b0319166001600160a01b038681169182179092559151849391871691600080516020614b0d83398151915291a4505050565b612be5828260405180602001604052806000815250613524565b6000612c8e8284614a0d565b6000612c8e8284614a42565b816001600160a01b0316836001600160a01b0316036133675760405162461bcd60e51b815260206004820152601960248201527822a9219b99189d1030b8383937bb32903a379031b0b63632b960391b604482015260640161052b565b6001600160a01b03838116600081815260056020908152604080832094871680845294825291829020805460ff191686151590811790915591519182527f17307eab39ab6107e8899845ad3d59bd9653f200f220920489ca2b5937696c31910160405180910390a3505050565b6133df84848461314e565b6133eb84848484613557565b612c1b5760405162461bcd60e51b815260040161052b90614a56565b60608160000361342e5750506040805180820190915260018152600360fc1b602082015290565b8160005b8115613458578061344281614675565b91506134519050600a83614a42565b9150613432565b6000816001600160401b0381111561347257613472614008565b6040519080825280601f01601f19166020018201604052801561349c576020820181803683370190505b5090505b8415613146576134b160018361464c565b91506134be600a86614aa8565b6134c9906030614860565b60f81b8183815181106134de576134de61465f565b60200101906001600160f81b031916908160001a905350613500600a86614a42565b94506134a0565b6000908152600260205260409020546001600160a01b0316151590565b61352e8383613658565b61353b6000848484613557565b6105cc5760405162461bcd60e51b815260040161052b90614a56565b60006001600160a01b0384163b1561364d57604051630a85bd0160e11b81526001600160a01b0385169063150b7a029061359b903390899088908890600401614abc565b6020604051808303816000875af19250505080156135d6575060408051601f3d908101601f191682019092526135d391810190614aef565b60015b613633573d808015613604576040519150601f19603f3d011682016040523d82523d6000602084013e613609565b606091505b50805160000361362b5760405162461bcd60e51b815260040161052b90614a56565b805181602001fd5b6001600160e01b031916630a85bd0160e11b149050613146565b506001949350505050565b6001600160a01b0382166136ae5760405162461bcd60e51b815260206004820181905260248201527f4552433732313a206d696e7420746f20746865207a65726f2061646472657373604482015260640161052b565b6136b781613507565b156137035760405162461bcd60e51b815260206004820152601c60248201527b115490cdcc8c4e881d1bdad95b88185b1c9958591e481b5a5b9d195960221b604482015260640161052b565b6001600160a01b038216600090815260036020526040812080546001929061372c908490614860565b909155505060008181526002602052604080822080546001600160a01b0319166001600160a01b0386169081179091559051839290600080516020614b0d833981519152908290a45050565b604051806101a001604052806000815260200160608152602001606081526020016060815260200160008152602001600081526020016137d96040518060800160405280606081526020016060815260200160608152602001606081525090565b81526000602082018190526040820181905260608201526080016137fb61390b565b815260200161382b6040518060800160405280606081526020016060815260200160608152602001606081525090565b81526020016138626040518060a0016040528060608152602001606081526020016060815260200160608152602001606081525090565b905290565b8280548282559060005260206000209081019282156138a75760005260206000209182015b828111156138a757825482559160010191906001019061388c565b506138b3929150613a02565b5090565b8280548282559060005260206000209081019282156138ff5760005260206000209182015b828111156138ff57816138ef848261474f565b50916001019190600101906138dc565b506138b3929150613a17565b60405180606001604052806060815260200160608152602001606081525090565b8280548282559060005260206000209081019282156138a7579160200282015b828111156138a757825182546001600160a01b0319166001600160a01b0390911617825560209092019160019091019061394c565b8280548282559060005260206000209081019282156138a7579160200282015b828111156138a75782518255916020019190600101906139a1565b8280548282559060005260206000209081019282156138ff579160200282015b828111156138ff57825182906139f29082614873565b50916020019190600101906139dc565b5b808211156138b35760008155600101613a03565b808211156138b3576000613a2b8282613a34565b50600101613a17565b508054613a40906145b4565b6000825580601f10613a50575050565b601f01602090049060005260206000209081019061307e9190613a02565b6001600160e01b03198116811461307e57600080fd5b600060208284031215613a9657600080fd5b8135612c8e81613a6e565b60005b83811015613abc578181015183820152602001613aa4565b50506000910152565b60008151808452613add816020860160208601613aa1565b601f01601f19169290920160200192915050565b602081526000612c8e6020830184613ac5565b600060208284031215613b1657600080fd5b5035919050565b6001600160a01b03169052565b80356001600160a01b0381168114613b4157600080fd5b919050565b60008060408385031215613b5957600080fd5b613b6283613b2a565b946020939093013593505050565b600080600060608486031215613b8557600080fd5b613b8e84613b2a565b9250613b9c60208501613b2a565b9150604084013590509250925092565b6000815160808452613bc16080850182613ac5565b905060208301518482036020860152613bda8282613ac5565b91505060408301518482036040860152613bf48282613ac5565b91505060608301518482036060860152613c0e8282613ac5565b95945050505050565b600081518084526020808501945080840160005b83811015613c4757815187529582019590820190600101613c2b565b509495945050505050565b805160608084528151908401819052600091602091908201906080860190845b81811015613c975783516001600160a01b031683529284019291840191600101613c72565b505082850151915085810383870152613cb08183613c17565b9250505060408301518482036040860152613c0e8282613c17565b6000815160a08452613ce060a0850182613ac5565b9050602080840151858303828701528281518085528385019150838160051b860101848401935060005b82811015613d3857601f19878303018452613d26828651613ac5565b94860194938601939150600101613d0a565b506040880151955088810360408a0152613d528187613ac5565b9550505050505060608301518482036060860152613d708282613ac5565b91505060808301518482036080860152613c0e8282613ac5565b8d81526101a060208201526000613da56101a083018f613ac5565b8281036040840152613db7818f613ac5565b90508281036060840152613dcb818e613ac5565b90508b60808401528a60a084015282810360c0840152613deb818b613bac565b9050613dfa60e084018a613b1d565b613e08610100840189613b1d565b861515610120840152828103610140840152613e248187613c52565b9050828103610160840152613e398186613bac565b9050828103610180840152613e4e8185613ccb565b9150509e9d5050505050505050505050505050565b60006020808301818452808551808352604092508286019150828160051b87010184880160005b83811015613fbd57603f1989840301855281516101a08151855288820151818a870152613eb982870182613ac5565b9150508782015185820389870152613ed18282613ac5565b91505060608083015186830382880152613eeb8382613ac5565b92505050608080830151818701525060a080830151818701525060c08083015186830382880152613f1c8382613bac565b9250505060e080830151613f3282880182613b1d565b505061010080830151613f4782880182613b1d565b5050610120828101511515908601526101408083015186830382880152613f6e8382613c52565b925050506101608083015186830382880152613f8a8382613bac565b925050506101808083015192508582038187015250613fa98183613ccb565b968901969450505090860190600101613e8a565b509098975050505050505050565b600060208284031215613fdd57600080fd5b612c8e82613b2a565b60008060408385031215613ff957600080fd5b50508035926020909101359150565b634e487b7160e01b600052604160045260246000fd5b604051608081016001600160401b038111828210171561404057614040614008565b60405290565b60405160a081016001600160401b038111828210171561404057614040614008565b604051601f8201601f191681016001600160401b038111828210171561409057614090614008565b604052919050565b60006001600160401b038311156140b1576140b1614008565b6140c4601f8401601f1916602001614068565b90508281528383830111156140d857600080fd5b828260208301376000602084830101529392505050565b600082601f83011261410057600080fd5b612c8e83833560208501614098565b80358015158114613b4157600080fd5b60006080828403121561413157600080fd5b61413961401e565b905081356001600160401b038082111561415257600080fd5b61415e858386016140ef565b8352602084013591508082111561417457600080fd5b614180858386016140ef565b6020840152604084013591508082111561419957600080fd5b6141a5858386016140ef565b604084015260608401359150808211156141be57600080fd5b506141cb848285016140ef565b60608301525092915050565b600082601f8301126141e857600080fd5b813560206001600160401b038083111561420457614204614008565b8260051b614213838201614068565b938452858101830193838101908886111561422d57600080fd5b84880192505b858310156142695782358481111561424b5760008081fd5b6142598a87838c01016140ef565b8352509184019190840190614233565b98975050505050505050565b600060a0828403121561428757600080fd5b61428f614046565b905081356001600160401b03808211156142a857600080fd5b6142b4858386016140ef565b835260208401359150808211156142ca57600080fd5b6142d6858386016141d7565b602084015260408401359150808211156142ef57600080fd5b6142fb858386016140ef565b6040840152606084013591508082111561431457600080fd5b614320858386016140ef565b6060840152608084013591508082111561433957600080fd5b50614346848285016140ef565b60808301525092915050565b60008060008060008060008060008060006101608c8e03121561437457600080fd5b6001600160401b038c3581101561438a57600080fd5b6143978e8e358f016140ef565b9b508060208e013511156143aa57600080fd5b6143ba8e60208f01358f016140ef565b9a508060408e013511156143cd57600080fd5b6143dd8e60408f01358f016140ef565b995060608d013598508060808e013511156143f757600080fd5b6144078e60808f01358f016140ef565b97508060a08e0135111561441a57600080fd5b61442a8e60a08f01358f016140ef565b96508060c08e0135111561443d57600080fd5b61444d8e60c08f01358f016140ef565b95508060e08e0135111561446057600080fd5b6144708e60e08f01358f016140ef565b945061447f6101008e0161410f565b9350806101208e0135111561449357600080fd5b6144a48e6101208f01358f0161411f565b9250806101408e013511156144b857600080fd5b506144ca8d6101408e01358e01614275565b90509295989b509295989b9093969950565b600080604083850312156144ef57600080fd5b6144f883613b2a565b91506145066020840161410f565b90509250929050565b6000806000806080858703121561452557600080fd5b61452e85613b2a565b935061453c60208601613b2a565b92506040850135915060608501356001600160401b0381111561455e57600080fd5b8501601f8101871361456f57600080fd5b61457e87823560208401614098565b91505092959194509250565b6000806040838503121561459d57600080fd5b6145a683613b2a565b915061450660208401613b2a565b600181811c908216806145c857607f821691505b602082108103611d1a57634e487b7160e01b600052602260045260246000fd5b6020808252602e908201527f4552433732313a2063616c6c6572206973206e6f7420746f6b656e206f776e6560408201526d1c881b9bdc88185c1c1c9bdd995960921b606082015260800190565b634e487b7160e01b600052601160045260246000fd5b818103818111156103f8576103f8614636565b634e487b7160e01b600052603260045260246000fd5b60006001820161468757614687614636565b5060010190565b602080825260189082015277115490cdcc8c4e881a5b9d985b1a59081d1bdad95b88125160421b604082015260600190565b602080825260129082015271125b9d985b1a59081c1bd918d85cdd081a5960721b604082015260600190565b601f8211156105cc57600081815260208120601f850160051c810160208610156147135750805b601f850160051c820191505b818110156147325782815560010161471f565b505050505050565b600019600383901b1c191660019190911b1790565b81810361475a575050565b61476482546145b4565b6001600160401b0381111561477b5761477b614008565b61478f8161478984546145b4565b846146ec565b6000601f8211600181146147bd57600083156147ab5750848201545b6147b5848261473a565b855550614822565b600085815260209020601f19841690600086815260209020845b838110156147f757828601548255600195860195909101906020016147d7565b50858310156148155781850154600019600388901b60f8161c191681555b50505060018360011b0184555b5050505050565b6020808252601f908201527f5265656e7472616e637947756172643a207265656e7472616e742063616c6c00604082015260600190565b808201808211156103f8576103f8614636565b81516001600160401b0381111561488c5761488c614008565b61489a8161478984546145b4565b602080601f8311600181146148c957600084156148b75750858301515b6148c1858261473a565b865550614732565b600085815260208120601f198616915b828110156148f8578886015182559484019460019091019084016148d9565b50858210156149165787850151600019600388901b60f8161c191681555b5050505050600190811b01905550565b85815260006020868184015260a0604084015260008654614946816145b4565b8060a087015260c06001808416600081146149685760018114614982576149b0565b60ff1985168984015283151560051b8901830195506149b0565b8b6000528660002060005b858110156149a85781548b820186015290830190880161498d565b8a0184019650505b505050505080925050506149c76060830185613b1d565b6149d46080830184613b1d565b9695505050505050565b600083516149f0818460208801613aa1565b835190830190614a04818360208801613aa1565b01949350505050565b6000816000190483118215151615614a2757614a27614636565b500290565b634e487b7160e01b600052601260045260246000fd5b600082614a5157614a51614a2c565b500490565b60208082526032908201527f4552433732313a207472616e7366657220746f206e6f6e20455243373231526560408201527131b2b4bb32b91034b6b83632b6b2b73a32b960711b606082015260800190565b600082614ab757614ab7614a2c565b500690565b6001600160a01b03858116825284166020820152604081018390526080606082018190526000906149d490830184613ac5565b600060208284031215614b0157600080fd5b8151612c8e81613a6e56feddf252ad1be2c89b69c2b068fc378daa952ba7f163c4a11628f55a4df523b3efa26469706673582212201c56c84fc27d0b4cc34c7ad50f9877777492ceeaaee1a9cb6a7f404ceef944ac64736f6c63430008100033",
  "immutableReferences": {},
  "source": "// contracts/Podmatic.sol\n// SPDX-License-Identifier: MIT\npragma solidity ^0.8.0;\n\nimport \"@openzeppelin/contracts/token/ERC721/ERC721.sol\";\nimport \"@openzeppelin/contracts/security/ReentrancyGuard.sol\";\nimport \"@openzeppelin/contracts/utils/math/SafeMath.sol\";\n\ncontract Podmatic is ERC721, ReentrancyGuard {\n    using SafeMath for uint256;\n\n    uint256 public podcastsCount = 0;\n    address PodmaticMain = 0x159507b2b3829791fAB794581D2aC074F3596013;\n\n    constructor() ERC721(\"Podmatic\", \"PDM\") {}\n\n    struct Link {\n        string spotify;\n        string applePodcasts;\n        string audible;\n        string googlePodcasts;\n    }\n\n    struct Characteristic {\n        string genre; // Genre/Category\n        string[] tags; // Tags to associate with the podcast\n        string speech; // (Metaphorical, Literal)\n        string podcastType; // (Monologue, Conversational, Interview, Investigative, etc.)\n        string languageOfRecording; // Language of recording of the podcast\n    }\n\n    struct Sales {\n        address[] previousOwners;\n        uint256[] previousPrices;\n        uint256[] previousSaleTimes;\n    }\n\n    struct Hashes {\n        string imgHash;\n        string podcastAudioHash;\n        string summaryHash;\n        string backgroundHash;\n    }\n\n    struct Podcast {\n        uint256 id;\n        string podcastName;\n        string podcasterName;\n        string podcastGuest; // Guest speaker's name\n        uint256 price;\n        uint256 createTime;\n        Hashes hashes;\n        address payable podcasterAddress;\n        address payable currentOwnerAddress;\n        bool onSale;\n        Sales sales;\n        Link links;\n        Characteristic characteristics;\n    }\n\n    mapping(uint256 => Podcast) public podcasts;\n\n    event PodcastPurchased(\n        uint256 id,\n        uint256 price,\n        string podcastName,\n        address payable podcasterAddress,\n        address payable currentOwnerAddress\n    );\n\n    function createPodcast(\n        string memory _podcastName,\n        string memory _podcasterName,\n        string memory _podcastGuest,\n        uint256 _price,\n        string memory _imgHash,\n        string memory _podcastAudioHash,\n        string memory _backgroundHash,\n        string memory _summaryHash,\n        bool _onSale,\n        Link memory _links,\n        Characteristic memory _characteristics\n    ) public nonReentrant {\n        // Require a name\n        require(bytes(_podcastName).length > 0, \"Podcast name cannot be empty\");\n        // Require podcaster's name\n        require(\n            bytes(_podcasterName).length > 0,\n            \"Podcaster name cannot be empty\"\n        );\n        // Require podcast guest's name\n        require(\n            bytes(_podcastGuest).length > 0,\n            \"Podcast Guest's name cannot be empty\"\n        );\n        // Require price > 0\n        require(_price > 0, \"Price must be at least 1 wei\");\n        require(bytes(_imgHash).length > 0, \"Cover image must be provided\");\n        require(\n            bytes(_podcastAudioHash).length > 0,\n            \"Podcast must be provided\"\n        );\n\n        podcastsCount += 1;\n        uint256 _createTime = block.timestamp;\n        Sales memory _sales;\n\n        podcasts[podcastsCount] = Podcast(\n            podcastsCount,\n            _podcastName,\n            _podcasterName,\n            _podcastGuest,\n            _price,\n            _createTime,\n            Hashes(_imgHash, _podcastAudioHash, _backgroundHash, _summaryHash),\n            payable(msg.sender),\n            payable(msg.sender),\n            _onSale,\n            _sales,\n            _links,\n            _characteristics\n        );\n\n        // Call mint function\n        _safeMint(msg.sender, podcastsCount);\n    }\n\n    function purchasePodcast(uint256 _id) public payable nonReentrant {\n        // Make sure the id is valid\n        require(_id > 0 && _id <= podcastsCount, \"Invalid podcast id\");\n        // Fetch the podcast\n        Podcast storage _podcast = podcasts[_id];\n        // Require that there is enough matic provided for the transaction\n        require(msg.value >= _podcast.price, \"Not enough matic provided\");\n        // Require that the podcast is available for sale\n        require(_podcast.onSale, \"Podcast is not available for sale\");\n        // Require that buyer is not the seller\n        require(\n            _podcast.currentOwnerAddress != msg.sender,\n            \"You cannot purchase your own podcast\"\n        );\n        // Add the owner to previousOwners\n        _podcast.sales.previousOwners.push(_podcast.currentOwnerAddress);\n        // Add price to previousPrices\n        _podcast.sales.previousPrices.push(_podcast.price);\n        // Add time to previousSaleTimes\n        _podcast.sales.previousSaleTimes.push(block.timestamp);\n        // Transfer matic\n        if (_podcast.currentOwnerAddress == _podcast.podcasterAddress) {\n            // Transfer all matic to podcaster whenever the first transaction for the NFT happens. This is because the podcaster is the owner after creating the NFT.\n            payable(_podcast.currentOwnerAddress).transfer(msg.value);\n        } else {\n            // Pay the seller by sending 94% matic\n            uint256 _value = ((msg.value).mul(94)).div(100);\n            payable(_podcast.currentOwnerAddress).transfer(_value);\n            // Pay the podcaster 5% of the transaction amount as royalty\n            uint256 _royalty = ((msg.value).mul(5)).div(100);\n            payable(_podcast.podcasterAddress).transfer(_royalty);\n            // Pay the platform fee by sending the remaining 1% matic\n            uint256 _platformFee = ((msg.value).mul(1)).div(100);\n            payable(PodmaticMain).transfer(_platformFee);\n        }\n        // Transfer ownership to buyer\n        _transfer(_podcast.currentOwnerAddress, msg.sender, _id);\n        _podcast.currentOwnerAddress = payable(msg.sender);\n        // Increase price of NFT by 20%\n        _podcast.price = ((_podcast.price).mul(120)).div(100);\n        // Update the podcast\n        podcasts[_id] = _podcast;\n        // Trigger an event\n        emit PodcastPurchased(\n            podcastsCount,\n            _podcast.price,\n            _podcast.podcastName,\n            _podcast.podcasterAddress,\n            _podcast.currentOwnerAddress\n        );\n    }\n\n    function toggleOnSale(uint256 _id) public {\n        // Make sure the id is valid\n        require(_id > 0 && _id <= podcastsCount, \"Invalid podcast id\");\n        // Fetch the podcast\n        Podcast storage _podcast = podcasts[_id];\n        // Require that the podcaster is calling the function\n        require(\n            _podcast.podcasterAddress == msg.sender,\n            \"Only the podcaster can toggle the on sale attribute\"\n        );\n        // Require that the podcaster is also the current owner\n        require(\n            _podcast.podcasterAddress == _podcast.currentOwnerAddress,\n            \"Podcaster must be the current owner of the NFT\"\n        );\n        // Toggle onSale attribute\n        if (_podcast.onSale == true) {\n            _podcast.onSale = false;\n        } else if (_podcast.onSale == false) {\n            _podcast.onSale = true;\n        }\n        // Update the podcast\n        podcasts[_id] = _podcast;\n    }\n\n    function updatePrice(uint256 _id, uint256 _newPrice) public {\n        // Make sure the id is valid\n        require(_id > 0 && _id <= podcastsCount, \"Invalid podcast id\");\n        // Fetch the podcast\n        Podcast storage _podcast = podcasts[_id];\n        // Require that the current owner is calling the function\n        require(\n            _podcast.currentOwnerAddress == msg.sender,\n            \"Only the current owner can update the price\"\n        );\n        // Edit the price\n        _podcast.price = _newPrice;\n        // Update the podcast\n        podcasts[_id] = _podcast;\n    }\n\n    /* Returns all items */\n    function fetchAllNFTs() public view returns (Podcast[] memory) {\n        require(podcastsCount > 0, \"No podcasts to fetch\");\n        Podcast[] memory items = new Podcast[](podcastsCount);\n\n        for (uint256 i = 1; i <= podcastsCount; i++) {\n            Podcast storage currentItem = podcasts[i];\n            items[i - 1] = currentItem;\n        }\n        return items;\n    }\n}\n",
  "sourcePath": "/Users/pushpitbhardwaj/Desktop/h4CK3R/blockchain/podmatic/contracts/Podmatic.sol",
  "compiler": {
    "name": "solc",
    "version": "0.8.16+commit.07a7930e.Emscripten.clang"
  },
  "schemaVersion": "3.4.3",
  "updatedAt": "2022-08-19T18:18:23.054Z",
  "networkType": "ethereum",
  "devdoc": {
    "kind": "dev",
    "methods": {
      "approve(address,uint256)": {
        "details": "See {IERC721-approve}."
      },
      "balanceOf(address)": {
        "details": "See {IERC721-balanceOf}."
      },
      "getApproved(uint256)": {
        "details": "See {IERC721-getApproved}."
      },
      "isApprovedForAll(address,address)": {
        "details": "See {IERC721-isApprovedForAll}."
      },
      "name()": {
        "details": "See {IERC721Metadata-name}."
      },
      "ownerOf(uint256)": {
        "details": "See {IERC721-ownerOf}."
      },
      "safeTransferFrom(address,address,uint256)": {
        "details": "See {IERC721-safeTransferFrom}."
      },
      "safeTransferFrom(address,address,uint256,bytes)": {
        "details": "See {IERC721-safeTransferFrom}."
      },
      "setApprovalForAll(address,bool)": {
        "details": "See {IERC721-setApprovalForAll}."
      },
      "supportsInterface(bytes4)": {
        "details": "See {IERC165-supportsInterface}."
      },
      "symbol()": {
        "details": "See {IERC721Metadata-symbol}."
      },
      "tokenURI(uint256)": {
        "details": "See {IERC721Metadata-tokenURI}."
      },
      "transferFrom(address,address,uint256)": {
        "details": "See {IERC721-transferFrom}."
      }
    },
    "version": 1
  },
  "userdoc": {
    "kind": "user",
    "methods": {},
    "version": 1
  }
}